{
  "_format": "hh-sol-artifact-1",
  "contractName": "HedraXERC721C",
  "sourceName": "contracts/HedraXERC721C.sol",
  "abi": [
    {
      "inputs": [],
      "stateMutability": "nonpayable",
      "type": "constructor"
    },
    {
      "inputs": [],
      "name": "CreatorTokenBase__InvalidTransferValidatorContract",
      "type": "error"
    },
    {
      "inputs": [],
      "name": "ERC721OpenZeppelinInitializable__AlreadyInitializedERC721",
      "type": "error"
    },
    {
      "inputs": [],
      "name": "InitializableOwnable__OwnerAlreadyInitialized",
      "type": "error"
    },
    {
      "inputs": [],
      "name": "ShouldNotMintToBurnAddress",
      "type": "error"
    },
    {
      "anonymous": false,
      "inputs": [
        {
          "indexed": true,
          "internalType": "address",
          "name": "owner",
          "type": "address"
        },
        {
          "indexed": true,
          "internalType": "address",
          "name": "approved",
          "type": "address"
        },
        {
          "indexed": true,
          "internalType": "uint256",
          "name": "tokenId",
          "type": "uint256"
        }
      ],
      "name": "Approval",
      "type": "event"
    },
    {
      "anonymous": false,
      "inputs": [
        {
          "indexed": true,
          "internalType": "address",
          "name": "owner",
          "type": "address"
        },
        {
          "indexed": true,
          "internalType": "address",
          "name": "operator",
          "type": "address"
        },
        {
          "indexed": false,
          "internalType": "bool",
          "name": "approved",
          "type": "bool"
        }
      ],
      "name": "ApprovalForAll",
      "type": "event"
    },
    {
      "anonymous": false,
      "inputs": [
        {
          "indexed": false,
          "internalType": "bool",
          "name": "autoApproved",
          "type": "bool"
        }
      ],
      "name": "AutomaticApprovalOfTransferValidatorSet",
      "type": "event"
    },
    {
      "anonymous": false,
      "inputs": [
        {
          "indexed": false,
          "internalType": "uint256",
          "name": "_fromTokenId",
          "type": "uint256"
        },
        {
          "indexed": false,
          "internalType": "uint256",
          "name": "_toTokenId",
          "type": "uint256"
        }
      ],
      "name": "BatchMetadataUpdate",
      "type": "event"
    },
    {
      "anonymous": false,
      "inputs": [
        {
          "indexed": true,
          "internalType": "address",
          "name": "receiver",
          "type": "address"
        },
        {
          "indexed": false,
          "internalType": "uint96",
          "name": "feeNumerator",
          "type": "uint96"
        }
      ],
      "name": "DefaultRoyaltySet",
      "type": "event"
    },
    {
      "anonymous": false,
      "inputs": [
        {
          "indexed": false,
          "internalType": "uint256",
          "name": "_tokenId",
          "type": "uint256"
        }
      ],
      "name": "MetadataUpdate",
      "type": "event"
    },
    {
      "anonymous": false,
      "inputs": [
        {
          "indexed": true,
          "internalType": "address",
          "name": "wallet",
          "type": "address"
        },
        {
          "indexed": true,
          "internalType": "bytes32",
          "name": "phaseID",
          "type": "bytes32"
        },
        {
          "indexed": false,
          "internalType": "uint256",
          "name": "amount",
          "type": "uint256"
        },
        {
          "indexed": false,
          "internalType": "uint256",
          "name": "paid",
          "type": "uint256"
        }
      ],
      "name": "Minted",
      "type": "event"
    },
    {
      "anonymous": false,
      "inputs": [
        {
          "indexed": true,
          "internalType": "address",
          "name": "previousOwner",
          "type": "address"
        },
        {
          "indexed": true,
          "internalType": "address",
          "name": "newOwner",
          "type": "address"
        }
      ],
      "name": "OwnershipTransferred",
      "type": "event"
    },
    {
      "anonymous": false,
      "inputs": [
        {
          "indexed": false,
          "internalType": "address",
          "name": "from",
          "type": "address"
        },
        {
          "indexed": false,
          "internalType": "uint256",
          "name": "amount",
          "type": "uint256"
        }
      ],
      "name": "PaymentReceived",
      "type": "event"
    },
    {
      "anonymous": false,
      "inputs": [
        {
          "indexed": false,
          "internalType": "address[]",
          "name": "paymentReceivers",
          "type": "address[]"
        },
        {
          "indexed": false,
          "internalType": "uint256[]",
          "name": "paymentShares",
          "type": "uint256[]"
        }
      ],
      "name": "PaymentSharesUpdated",
      "type": "event"
    },
    {
      "anonymous": false,
      "inputs": [
        {
          "indexed": false,
          "internalType": "address",
          "name": "to",
          "type": "address"
        },
        {
          "indexed": false,
          "internalType": "uint256",
          "name": "amount",
          "type": "uint256"
        }
      ],
      "name": "PaymentSplit",
      "type": "event"
    },
    {
      "anonymous": false,
      "inputs": [
        {
          "indexed": false,
          "internalType": "address",
          "name": "token",
          "type": "address"
        },
        {
          "indexed": false,
          "internalType": "address",
          "name": "to",
          "type": "address"
        },
        {
          "indexed": false,
          "internalType": "uint256",
          "name": "amount",
          "type": "uint256"
        }
      ],
      "name": "PaymentSplit",
      "type": "event"
    },
    {
      "anonymous": false,
      "inputs": [
        {
          "indexed": false,
          "internalType": "address[]",
          "name": "royaltyReceivers",
          "type": "address[]"
        },
        {
          "indexed": false,
          "internalType": "uint256[]",
          "name": "royaltyShares",
          "type": "uint256[]"
        }
      ],
      "name": "RoyaltySharesUpdated",
      "type": "event"
    },
    {
      "anonymous": false,
      "inputs": [
        {
          "indexed": true,
          "internalType": "uint256",
          "name": "tokenId",
          "type": "uint256"
        },
        {
          "indexed": true,
          "internalType": "address",
          "name": "receiver",
          "type": "address"
        },
        {
          "indexed": false,
          "internalType": "uint96",
          "name": "feeNumerator",
          "type": "uint96"
        }
      ],
      "name": "TokenRoyaltySet",
      "type": "event"
    },
    {
      "anonymous": false,
      "inputs": [
        {
          "indexed": true,
          "internalType": "address",
          "name": "from",
          "type": "address"
        },
        {
          "indexed": true,
          "internalType": "address",
          "name": "to",
          "type": "address"
        },
        {
          "indexed": true,
          "internalType": "uint256",
          "name": "tokenId",
          "type": "uint256"
        }
      ],
      "name": "Transfer",
      "type": "event"
    },
    {
      "anonymous": false,
      "inputs": [
        {
          "indexed": false,
          "internalType": "address",
          "name": "oldValidator",
          "type": "address"
        },
        {
          "indexed": false,
          "internalType": "address",
          "name": "newValidator",
          "type": "address"
        }
      ],
      "name": "TransferValidatorUpdated",
      "type": "event"
    },
    {
      "inputs": [],
      "name": "DEFAULT_TRANSFER_VALIDATOR",
      "outputs": [
        {
          "internalType": "address",
          "name": "",
          "type": "address"
        }
      ],
      "stateMutability": "view",
      "type": "function"
    },
    {
      "inputs": [],
      "name": "MINT_TYPEHASH",
      "outputs": [
        {
          "internalType": "bytes32",
          "name": "",
          "type": "bytes32"
        }
      ],
      "stateMutability": "view",
      "type": "function"
    },
    {
      "inputs": [],
      "name": "TOTAL_PAYMENT_SHARES",
      "outputs": [
        {
          "internalType": "uint256",
          "name": "",
          "type": "uint256"
        }
      ],
      "stateMutability": "view",
      "type": "function"
    },
    {
      "inputs": [],
      "name": "TOTAL_ROYALTY_SHARES",
      "outputs": [
        {
          "internalType": "uint256",
          "name": "",
          "type": "uint256"
        }
      ],
      "stateMutability": "view",
      "type": "function"
    },
    {
      "inputs": [
        {
          "internalType": "address",
          "name": "to",
          "type": "address"
        },
        {
          "internalType": "uint256",
          "name": "tokenId",
          "type": "uint256"
        }
      ],
      "name": "approve",
      "outputs": [],
      "stateMutability": "nonpayable",
      "type": "function"
    },
    {
      "inputs": [],
      "name": "autoApproveTransfersFromValidator",
      "outputs": [
        {
          "internalType": "bool",
          "name": "",
          "type": "bool"
        }
      ],
      "stateMutability": "view",
      "type": "function"
    },
    {
      "inputs": [
        {
          "internalType": "address",
          "name": "owner",
          "type": "address"
        }
      ],
      "name": "balanceOf",
      "outputs": [
        {
          "internalType": "uint256",
          "name": "",
          "type": "uint256"
        }
      ],
      "stateMutability": "view",
      "type": "function"
    },
    {
      "inputs": [],
      "name": "baseURI",
      "outputs": [
        {
          "internalType": "string",
          "name": "",
          "type": "string"
        }
      ],
      "stateMutability": "view",
      "type": "function"
    },
    {
      "inputs": [
        {
          "internalType": "uint256",
          "name": "tokenId",
          "type": "uint256"
        }
      ],
      "name": "burn",
      "outputs": [],
      "stateMutability": "nonpayable",
      "type": "function"
    },
    {
      "inputs": [],
      "name": "burnEnabled",
      "outputs": [
        {
          "internalType": "bool",
          "name": "",
          "type": "bool"
        }
      ],
      "stateMutability": "view",
      "type": "function"
    },
    {
      "inputs": [],
      "name": "enableTrading",
      "outputs": [],
      "stateMutability": "nonpayable",
      "type": "function"
    },
    {
      "inputs": [],
      "name": "externalMintContract",
      "outputs": [
        {
          "internalType": "address",
          "name": "",
          "type": "address"
        }
      ],
      "stateMutability": "view",
      "type": "function"
    },
    {
      "inputs": [],
      "name": "firstTokenId",
      "outputs": [
        {
          "internalType": "uint256",
          "name": "",
          "type": "uint256"
        }
      ],
      "stateMutability": "view",
      "type": "function"
    },
    {
      "inputs": [
        {
          "internalType": "uint256",
          "name": "tokenId",
          "type": "uint256"
        }
      ],
      "name": "getApproved",
      "outputs": [
        {
          "internalType": "address",
          "name": "",
          "type": "address"
        }
      ],
      "stateMutability": "view",
      "type": "function"
    },
    {
      "inputs": [],
      "name": "getPaymentShares",
      "outputs": [
        {
          "internalType": "address[]",
          "name": "",
          "type": "address[]"
        },
        {
          "internalType": "uint256[]",
          "name": "",
          "type": "uint256[]"
        }
      ],
      "stateMutability": "view",
      "type": "function"
    },
    {
      "inputs": [],
      "name": "getRoyaltyShares",
      "outputs": [
        {
          "internalType": "address[]",
          "name": "",
          "type": "address[]"
        },
        {
          "internalType": "uint256[]",
          "name": "",
          "type": "uint256[]"
        }
      ],
      "stateMutability": "view",
      "type": "function"
    },
    {
      "inputs": [],
      "name": "getTransferValidationFunction",
      "outputs": [
        {
          "internalType": "bytes4",
          "name": "functionSignature",
          "type": "bytes4"
        },
        {
          "internalType": "bool",
          "name": "isViewFunction",
          "type": "bool"
        }
      ],
      "stateMutability": "pure",
      "type": "function"
    },
    {
      "inputs": [],
      "name": "getTransferValidator",
      "outputs": [
        {
          "internalType": "address",
          "name": "validator",
          "type": "address"
        }
      ],
      "stateMutability": "view",
      "type": "function"
    },
    {
      "inputs": [
        {
          "internalType": "string",
          "name": "_name",
          "type": "string"
        },
        {
          "internalType": "string",
          "name": "_symbol",
          "type": "string"
        },
        {
          "internalType": "string",
          "name": "_baseUri",
          "type": "string"
        },
        {
          "internalType": "uint256",
          "name": "_supply",
          "type": "uint256"
        },
        {
          "internalType": "uint256",
          "name": "_firstTokenId",
          "type": "uint256"
        },
        {
          "internalType": "address",
          "name": "_signer",
          "type": "address"
        },
        {
          "internalType": "address",
          "name": "_owner",
          "type": "address"
        },
        {
          "internalType": "uint96",
          "name": "_royaltyFeeNumerator",
          "type": "uint96"
        },
        {
          "internalType": "address",
          "name": "_royaltyReceiver",
          "type": "address"
        },
        {
          "internalType": "address",
          "name": "_mintFeeReceiver",
          "type": "address"
        }
      ],
      "name": "initialize",
      "outputs": [],
      "stateMutability": "nonpayable",
      "type": "function"
    },
    {
      "inputs": [
        {
          "internalType": "string",
          "name": "name_",
          "type": "string"
        },
        {
          "internalType": "string",
          "name": "symbol_",
          "type": "string"
        }
      ],
      "name": "initializeERC721",
      "outputs": [],
      "stateMutability": "nonpayable",
      "type": "function"
    },
    {
      "inputs": [
        {
          "internalType": "address",
          "name": "owner_",
          "type": "address"
        }
      ],
      "name": "initializeOwner",
      "outputs": [],
      "stateMutability": "nonpayable",
      "type": "function"
    },
    {
      "inputs": [
        {
          "internalType": "address",
          "name": "owner",
          "type": "address"
        },
        {
          "internalType": "address",
          "name": "operator",
          "type": "address"
        }
      ],
      "name": "isApprovedForAll",
      "outputs": [
        {
          "internalType": "bool",
          "name": "isApproved",
          "type": "bool"
        }
      ],
      "stateMutability": "view",
      "type": "function"
    },
    {
      "inputs": [
        {
          "components": [
            {
              "internalType": "address",
              "name": "wallet",
              "type": "address"
            },
            {
              "internalType": "uint256",
              "name": "amount",
              "type": "uint256"
            },
            {
              "internalType": "bytes32",
              "name": "phaseID",
              "type": "bytes32"
            },
            {
              "internalType": "uint256",
              "name": "price",
              "type": "uint256"
            },
            {
              "internalType": "uint256",
              "name": "mintFee",
              "type": "uint256"
            },
            {
              "internalType": "uint256",
              "name": "maxPerTx",
              "type": "uint256"
            },
            {
              "internalType": "uint256",
              "name": "maxPerUser",
              "type": "uint256"
            },
            {
              "internalType": "uint256",
              "name": "maxPerPhase",
              "type": "uint256"
            },
            {
              "internalType": "bytes32",
              "name": "nonce",
              "type": "bytes32"
            },
            {
              "internalType": "uint256",
              "name": "deadline",
              "type": "uint256"
            }
          ],
          "internalType": "struct HedraXERC721C.MintAuth",
          "name": "a",
          "type": "tuple"
        },
        {
          "internalType": "bytes",
          "name": "sig",
          "type": "bytes"
        }
      ],
      "name": "mint",
      "outputs": [],
      "stateMutability": "payable",
      "type": "function"
    },
    {
      "inputs": [],
      "name": "mintFeeReceiver",
      "outputs": [
        {
          "internalType": "address",
          "name": "",
          "type": "address"
        }
      ],
      "stateMutability": "view",
      "type": "function"
    },
    {
      "inputs": [],
      "name": "minted",
      "outputs": [
        {
          "internalType": "uint256",
          "name": "",
          "type": "uint256"
        }
      ],
      "stateMutability": "view",
      "type": "function"
    },
    {
      "inputs": [
        {
          "internalType": "address",
          "name": "_user",
          "type": "address"
        },
        {
          "internalType": "bytes32",
          "name": "_phaseID",
          "type": "bytes32"
        }
      ],
      "name": "mintedByUser",
      "outputs": [
        {
          "internalType": "uint256",
          "name": "",
          "type": "uint256"
        }
      ],
      "stateMutability": "view",
      "type": "function"
    },
    {
      "inputs": [
        {
          "internalType": "bytes32",
          "name": "_phaseID",
          "type": "bytes32"
        }
      ],
      "name": "mintedTotal",
      "outputs": [
        {
          "internalType": "uint256",
          "name": "",
          "type": "uint256"
        }
      ],
      "stateMutability": "view",
      "type": "function"
    },
    {
      "inputs": [],
      "name": "name",
      "outputs": [
        {
          "internalType": "string",
          "name": "",
          "type": "string"
        }
      ],
      "stateMutability": "view",
      "type": "function"
    },
    {
      "inputs": [],
      "name": "owner",
      "outputs": [
        {
          "internalType": "address",
          "name": "",
          "type": "address"
        }
      ],
      "stateMutability": "view",
      "type": "function"
    },
    {
      "inputs": [
        {
          "internalType": "uint256",
          "name": "tokenId",
          "type": "uint256"
        }
      ],
      "name": "ownerOf",
      "outputs": [
        {
          "internalType": "address",
          "name": "",
          "type": "address"
        }
      ],
      "stateMutability": "view",
      "type": "function"
    },
    {
      "inputs": [
        {
          "internalType": "uint256",
          "name": "",
          "type": "uint256"
        }
      ],
      "name": "paymentReceivers",
      "outputs": [
        {
          "internalType": "address",
          "name": "",
          "type": "address"
        }
      ],
      "stateMutability": "view",
      "type": "function"
    },
    {
      "inputs": [
        {
          "internalType": "uint256",
          "name": "",
          "type": "uint256"
        }
      ],
      "name": "paymentShares",
      "outputs": [
        {
          "internalType": "uint256",
          "name": "",
          "type": "uint256"
        }
      ],
      "stateMutability": "view",
      "type": "function"
    },
    {
      "inputs": [
        {
          "internalType": "bytes32",
          "name": "",
          "type": "bytes32"
        }
      ],
      "name": "phasesStats",
      "outputs": [
        {
          "internalType": "uint256",
          "name": "mintedTotal",
          "type": "uint256"
        }
      ],
      "stateMutability": "view",
      "type": "function"
    },
    {
      "inputs": [],
      "name": "refreshMetadata",
      "outputs": [],
      "stateMutability": "nonpayable",
      "type": "function"
    },
    {
      "inputs": [],
      "name": "renounceOwnership",
      "outputs": [],
      "stateMutability": "nonpayable",
      "type": "function"
    },
    {
      "inputs": [
        {
          "internalType": "uint256",
          "name": "tokenId",
          "type": "uint256"
        },
        {
          "internalType": "uint256",
          "name": "salePrice",
          "type": "uint256"
        }
      ],
      "name": "royaltyInfo",
      "outputs": [
        {
          "internalType": "address",
          "name": "",
          "type": "address"
        },
        {
          "internalType": "uint256",
          "name": "",
          "type": "uint256"
        }
      ],
      "stateMutability": "view",
      "type": "function"
    },
    {
      "inputs": [
        {
          "internalType": "uint256",
          "name": "",
          "type": "uint256"
        }
      ],
      "name": "royaltyReceivers",
      "outputs": [
        {
          "internalType": "address",
          "name": "",
          "type": "address"
        }
      ],
      "stateMutability": "view",
      "type": "function"
    },
    {
      "inputs": [
        {
          "internalType": "uint256",
          "name": "",
          "type": "uint256"
        }
      ],
      "name": "royaltyShares",
      "outputs": [
        {
          "internalType": "uint256",
          "name": "",
          "type": "uint256"
        }
      ],
      "stateMutability": "view",
      "type": "function"
    },
    {
      "inputs": [
        {
          "internalType": "address",
          "name": "from",
          "type": "address"
        },
        {
          "internalType": "address",
          "name": "to",
          "type": "address"
        },
        {
          "internalType": "uint256",
          "name": "tokenId",
          "type": "uint256"
        }
      ],
      "name": "safeTransferFrom",
      "outputs": [],
      "stateMutability": "nonpayable",
      "type": "function"
    },
    {
      "inputs": [
        {
          "internalType": "address",
          "name": "from",
          "type": "address"
        },
        {
          "internalType": "address",
          "name": "to",
          "type": "address"
        },
        {
          "internalType": "uint256",
          "name": "tokenId",
          "type": "uint256"
        },
        {
          "internalType": "bytes",
          "name": "data",
          "type": "bytes"
        }
      ],
      "name": "safeTransferFrom",
      "outputs": [],
      "stateMutability": "nonpayable",
      "type": "function"
    },
    {
      "inputs": [
        {
          "internalType": "address",
          "name": "op",
          "type": "address"
        },
        {
          "internalType": "bool",
          "name": "appr",
          "type": "bool"
        }
      ],
      "name": "setApprovalForAll",
      "outputs": [],
      "stateMutability": "nonpayable",
      "type": "function"
    },
    {
      "inputs": [
        {
          "internalType": "bool",
          "name": "autoApprove",
          "type": "bool"
        }
      ],
      "name": "setAutomaticApprovalOfTransfersFromValidator",
      "outputs": [],
      "stateMutability": "nonpayable",
      "type": "function"
    },
    {
      "inputs": [
        {
          "internalType": "string",
          "name": "_uri",
          "type": "string"
        }
      ],
      "name": "setBaseURI",
      "outputs": [],
      "stateMutability": "nonpayable",
      "type": "function"
    },
    {
      "inputs": [
        {
          "internalType": "bool",
          "name": "e",
          "type": "bool"
        }
      ],
      "name": "setBurnEnabled",
      "outputs": [],
      "stateMutability": "nonpayable",
      "type": "function"
    },
    {
      "inputs": [
        {
          "internalType": "address",
          "name": "recv",
          "type": "address"
        },
        {
          "internalType": "uint96",
          "name": "fee",
          "type": "uint96"
        }
      ],
      "name": "setDefaultRoyalty",
      "outputs": [],
      "stateMutability": "nonpayable",
      "type": "function"
    },
    {
      "inputs": [
        {
          "internalType": "address",
          "name": "ext",
          "type": "address"
        }
      ],
      "name": "setExternalMintContract",
      "outputs": [],
      "stateMutability": "nonpayable",
      "type": "function"
    },
    {
      "inputs": [
        {
          "internalType": "address",
          "name": "recv",
          "type": "address"
        }
      ],
      "name": "setMintFeeReceiver",
      "outputs": [],
      "stateMutability": "nonpayable",
      "type": "function"
    },
    {
      "inputs": [
        {
          "internalType": "address",
          "name": "_signer",
          "type": "address"
        }
      ],
      "name": "setSigner",
      "outputs": [],
      "stateMutability": "nonpayable",
      "type": "function"
    },
    {
      "inputs": [
        {
          "internalType": "uint256",
          "name": "_new",
          "type": "uint256"
        }
      ],
      "name": "setSupply",
      "outputs": [],
      "stateMutability": "nonpayable",
      "type": "function"
    },
    {
      "inputs": [
        {
          "internalType": "uint256",
          "name": "tokenId",
          "type": "uint256"
        },
        {
          "internalType": "address",
          "name": "recv",
          "type": "address"
        },
        {
          "internalType": "uint96",
          "name": "fee",
          "type": "uint96"
        }
      ],
      "name": "setTokenRoyalty",
      "outputs": [],
      "stateMutability": "nonpayable",
      "type": "function"
    },
    {
      "inputs": [
        {
          "internalType": "address",
          "name": "transferValidator_",
          "type": "address"
        }
      ],
      "name": "setTransferValidator",
      "outputs": [],
      "stateMutability": "nonpayable",
      "type": "function"
    },
    {
      "inputs": [
        {
          "internalType": "address",
          "name": "t",
          "type": "address"
        }
      ],
      "name": "setTreasury",
      "outputs": [],
      "stateMutability": "nonpayable",
      "type": "function"
    },
    {
      "inputs": [],
      "name": "signer",
      "outputs": [
        {
          "internalType": "address",
          "name": "",
          "type": "address"
        }
      ],
      "stateMutability": "view",
      "type": "function"
    },
    {
      "inputs": [],
      "name": "supply",
      "outputs": [
        {
          "internalType": "uint256",
          "name": "",
          "type": "uint256"
        }
      ],
      "stateMutability": "view",
      "type": "function"
    },
    {
      "inputs": [
        {
          "internalType": "bytes4",
          "name": "interfaceId",
          "type": "bytes4"
        }
      ],
      "name": "supportsInterface",
      "outputs": [
        {
          "internalType": "bool",
          "name": "",
          "type": "bool"
        }
      ],
      "stateMutability": "view",
      "type": "function"
    },
    {
      "inputs": [],
      "name": "symbol",
      "outputs": [
        {
          "internalType": "string",
          "name": "",
          "type": "string"
        }
      ],
      "stateMutability": "view",
      "type": "function"
    },
    {
      "inputs": [
        {
          "internalType": "uint256",
          "name": "tokenId",
          "type": "uint256"
        }
      ],
      "name": "tokenURI",
      "outputs": [
        {
          "internalType": "string",
          "name": "",
          "type": "string"
        }
      ],
      "stateMutability": "view",
      "type": "function"
    },
    {
      "inputs": [],
      "name": "totalSupply",
      "outputs": [
        {
          "internalType": "uint256",
          "name": "",
          "type": "uint256"
        }
      ],
      "stateMutability": "view",
      "type": "function"
    },
    {
      "inputs": [],
      "name": "tradingEnabled",
      "outputs": [
        {
          "internalType": "bool",
          "name": "",
          "type": "bool"
        }
      ],
      "stateMutability": "view",
      "type": "function"
    },
    {
      "inputs": [
        {
          "internalType": "address",
          "name": "from",
          "type": "address"
        },
        {
          "internalType": "address",
          "name": "to",
          "type": "address"
        },
        {
          "internalType": "uint256",
          "name": "tokenId",
          "type": "uint256"
        }
      ],
      "name": "transferFrom",
      "outputs": [],
      "stateMutability": "nonpayable",
      "type": "function"
    },
    {
      "inputs": [
        {
          "internalType": "address",
          "name": "newOwner",
          "type": "address"
        }
      ],
      "name": "transferOwnership",
      "outputs": [],
      "stateMutability": "nonpayable",
      "type": "function"
    },
    {
      "inputs": [],
      "name": "treasury",
      "outputs": [
        {
          "internalType": "address",
          "name": "",
          "type": "address"
        }
      ],
      "stateMutability": "view",
      "type": "function"
    },
    {
      "inputs": [
        {
          "internalType": "address",
          "name": "newAddress",
          "type": "address"
        }
      ],
      "name": "updateReceiverAddress",
      "outputs": [],
      "stateMutability": "nonpayable",
      "type": "function"
    },
    {
      "inputs": [
        {
          "internalType": "bytes32",
          "name": "",
          "type": "bytes32"
        }
      ],
      "name": "usedNonces",
      "outputs": [
        {
          "internalType": "bool",
          "name": "",
          "type": "bool"
        }
      ],
      "stateMutability": "view",
      "type": "function"
    },
    {
      "inputs": [
        {
          "internalType": "address payable",
          "name": "to",
          "type": "address"
        },
        {
          "internalType": "uint256",
          "name": "amount",
          "type": "uint256"
        }
      ],
      "name": "withdraw",
      "outputs": [],
      "stateMutability": "nonpayable",
      "type": "function"
    },
    {
      "inputs": [],
      "name": "withdrawAll",
      "outputs": [],
      "stateMutability": "nonpayable",
      "type": "function"
    },
    {
      "stateMutability": "payable",
      "type": "receive"
    }
  ],
  "bytecode": "0x6080604052346103e35760405160006100196020836103e8565b8082526040519061002b6020836103e8565b80825282516001600160401b038111610314578154600181811c911680156103d9575b60208210146102f657601f8111610394575b506020601f821160011461033357829394829392610328575b50508160011b916000199060031b1c19161781555b81516001600160401b03811161031457600154600181811c9116801561030a575b60208210146102f657601f8111610293575b50602092601f821160011461023157928293829392610226575b50508160011b916000199060031b1c1916176001555b7fcc5dc080ff977b3c3a211fa63ab74f90f658f5ba9d3236e92c8f59570f442aac6040805183815273721c008fdff27bf06e7e123956e2fe03b63342e36020820152a173721c008fdff27bf06e7e123956e2fe03b63342e33b6101b3575b600b8054336001600160a01b031982168117909255604051926001600160a01b03909116907f8be0079c531659141344cd1fd0a4f28419497f9722a3daafe3b4186f6b6457e09080a36001600c5560ff19601254166012556143a590816104228239f35b73721c008fdff27bf06e7e123956e2fe03b63342e33b156102235760405163fb2de5d760e01b81523060048201526102d160248201528180826044818373721c008fdff27bf06e7e123956e2fe03b63342e35af1610213575b505061014f565b61021c916103e8565b388161020c565b80fd5b0151905038806100db565b601f198216936001845280842091845b86811061027b5750836001959610610262575b505050811b016001556100f1565b015160001960f88460031b161c19169055388080610254565b91926020600181928685015181550194019201610241565b600183527fb10e2d527612073b26eecdfd717e6a320cf44b4afac2b0732d9fcbe2b7fa0cf6601f830160051c810191602084106102ec575b601f0160051c01905b8181106102e157506100c1565b8381556001016102d4565b90915081906102cb565b634e487b7160e01b83526022600452602483fd5b90607f16906100af565b634e487b7160e01b82526041600452602482fd5b015190503880610079565b82805280832090601f198316845b81811061037c57509583600195969710610363575b505050811b01815561008e565b015160001960f88460031b161c19169055388080610356565b9192602060018192868b015181550194019201610341565b82805260208320601f830160051c810191602084106103cf575b601f0160051c01905b8181106103c45750610060565b8381556001016103b7565b90915081906103ae565b90607f169061004e565b600080fd5b601f909101601f19168101906001600160401b0382119082101761040b57604052565b634e487b7160e01b600052604160045260246000fdfe6080806040526004361015610257575b50361561001b57600080fd5b610023613cdb565b341561021257604080513381523460208201527f6ef95f06320e7a25a04a175ca677b7052bdd97131872c2192525a629f51be7709190a16000345b601054600019810190811161013b578210156101515761271061009061008384613034565b90549060031b1c346133ad565b049182820391821161013b577fdc94404aacc348ec6150566de35895623beac8db658845336c9dbf8361ced174600192936100f36000808080856001600160a01b036100db8a613003565b90549060031b1c165af16100ed61342e565b5061391e565b6001600160a01b0361010484613003565b90549060031b1c1661013160405192839283602090939291936001600160a01b0360408201951681520152565b0390a1019061005e565b634e487b7160e01b600052601160045260246000fd5b80151580610207575b610166575b6001600c55005b601054600019810190811161013b576000808080856001600160a01b036100db61018f97613003565b60105460001981019190821161013b576001600160a01b036101d17fdc94404aacc348ec6150566de35895623beac8db658845336c9dbf8361ced17493613003565b90549060031b1c166101fe60405192839283602090939291936001600160a01b0360408201951681520152565b0390a18061015f565b50601054151561015a565b60405162461bcd60e51b815260206004820152601360248201527f4e6f207061796d656e74207265636569766564000000000000000000000000006044820152606490fd5b600090813560e01c9081630146354614612f055750806301ffc9a714612e3057806304634d8d14612df2578063047fc9aa14612dd457806306fdde0314612d2d578063081812fc14612d0e578063095ea7b314612b93578063098144d414612b785780630d705df614612b505780630d97778514612b0a57806318160ddd14612695578063238ac93314612ae357806323b872dd14612abe5780632a425b5814612a975780632a55205a146129ba5780632f25524014611a5757806334781dd81461299c5780633b4c4b251461293f5780633c768d0e146128fc57806341006605146128b757806342842e0e1461288257806342966c68146126d65780634ada218b146126b35780634f02c420146126955780635002c3901461262557806355f804b31461249d5780635944c753146123845780635dc96d161461236157806361d027b3146123375780636221d13c146123115780636352211e146122e15780636b8eed0a146121b35780636c0360eb146121975780636c19e783146121225780636f070e83146120f857806370a0823114612062578063715018a614611ffb57806379d6dfe414611fb55780637b2c835f14611f80578063853828b614611ebb5780638a8c523c14611e455780638c5f36bb14611e235780638da5cb5b14611dfc57806395d89b4114611d2d5780639e05d24014611cc3578063a1ccfca8146114a8578063a22cb46514611be4578063a596dae314611b3b578063a9fc664e14611a5c578063b3bfe97014611a57578063b88d4fde146119d5578063c28947a7146114d2578063c6089b51146114a8578063c87b56dd1461125a578063d147c97a146111fe578063dd9d627414611188578063df100e5c146110cc578063e985e9c514611095578063ea27125b1461101b578063ea7c7208146107cd578063f0f4426014610746578063f15201571461070c578063f2fde38b1461067b578063f3fef3a3146105a2578063f76fc35e146105675763feb617240361000f57346105645760203660031901126105645760ff60406020926004358152601a84522054166040519015158152f35b80fd5b503461056457806003193601126105645760206040517fe09dfc003b6cf167a6e625cf3bef20179de27ec0e2daccfce40a8ce9134e5b888152f35b5034610564576040366003190112610564576004356001600160a01b038116809103610677576024356105d3613cdb565b6105db613d31565b811561064c5780151580610642575b15610610578280808093610608955af161060261342e565b5061345e565b6001600c5580f35b60405162461bcd60e51b815260206004820152600a60248201526918985908185b5bdd5b9d60b21b6044820152606490fd5b50478111156105ea565b606460405162461bcd60e51b81526020600482015260046024820152630746f3d360e41b6044820152fd5b5080fd5b503461056457602036600319011261056457610695612f33565b61069d613d31565b6001600160a01b038116156106b8576106b590613d89565b80f35b60405162461bcd60e51b815260206004820152602660248201527f4f776e61626c653a206e6577206f776e657220697320746865207a65726f206160448201526564647265737360d01b6064820152608490fd5b5034610564576020366003190112610564576004359060115482101561056457602061073783613034565b90549060031b1c604051908152f35b503461056457602036600319011261056457610760612f33565b610768613d31565b6001600160a01b0381161561079b57610100600160a81b03601c549160081b1690610100600160a81b03191617601c5580f35b60405162461bcd60e51b815260206004820152600a602482015269074726561737572793d360b41b6044820152606490fd5b50366003190161016081126106775761014013610564576101443567ffffffffffffffff811161067757366023820112156106775780600401359067ffffffffffffffff82116110175736602483830101116110175761082b613cdb565b6101243590814211610fe35761010435808552601a60205260ff604086205416610fb157808552601a60205260408520805460ff191660011790556001600160a01b036108766138fb565b163303610f6c57602435928315610f3c5761089384601654613911565b60145410610f0a5761098f946108a76138fb565b9361099760443597889361098960643594608435998b60a4359960c4359b60e4359a604051936001600160a01b0360208601967fe09dfc003b6cf167a6e625cf3bef20179de27ec0e2daccfce40a8ce9134e5b888852166040860152606085015260808401528960a08401528d60c08401528b60e08401528c6101008401528a610120840152610140830152610160820152610160815261094a61018082613081565b519020601b549060405190602082019261190160f01b8452602283015260428201526042815261097b606282613081565b5190209260243692016130bf565b90614082565b9190916140ba565b6001600160a01b038060195416911603610edb576109c2866109bc816109c9946133ad565b966133ad565b8095613911565b3403610ea8576109d76138fb565b92868852600d60205285604089209380610e57575b505080610de6575b5080610d8b575b506001600160a01b03600192610a12868454613911565b83551686520160205260408420610a2a838254613911565b9055601754849060081c6001600160a01b031615610b8d5750610a4f82601654613911565b6016556001600160a01b0360175460081c1684610a6a6138fb565b823b15610677576040516340c10f1960e01b81526001600160a01b0391909116600482015260248101859052918290604490829084905af18015610b8257610b6e575b5083905b80610b02575b50507f1eba155afe217abd462a2edbeadbfc49bcc9c9fb4ea11f28992964f6527c518e60406001600160a01b03610aec6138fb565b16928151908152346020820152a36001600c5580f35b818080926001600160a01b03601854165af1610b1c61342e565b5015610b29578238610ab7565b60405162461bcd60e51b815260206004820152600f60248201527f4665652078666572206661696c656400000000000000000000000000000000006044820152606490fd5b84610b7b91959295613081565b9238610aad565b6040513d87823e3d90fd5b5092919060165493610bab82610ba560155488613911565b96613911565b601655839460205b838710610bc857505083945092909192610ab1565b610bd06138fb565b96826000198114610d77576001019260405190610bed8483613081565b8882526001600160a01b038a1680159081610d34578290610c2d610c278360005260026020526001600160a01b0360406000205416151590565b15614260565b8b5b60018110610d075750610c5b610c278360005260026020526001600160a01b0360406000205416151590565b808c52600387526040808d2080546001019055828d52600288528c2080546001600160a01b031916821790558b7fddf252ad1be2c89b69c2b068fc378daa952ba7f163c4a11628f55a4df523b3ef8180a4895b60018110610cdf575050610cce60019392610cd3928b9c9b999a9b613ef0565b613e2a565b01965094939294610bb3565b610ce98184613911565b508115610cff57635cbd944160e01b8b5260048bfd5b600101610cae565b909181610d1391613911565b508215610d2957635cbd944160e01b8c5260048cfd5b600101908391610c2f565b6064866040519062461bcd60e51b825280600483015260248201527f4552433732313a206d696e7420746f20746865207a65726f20616464726573736044820152fd5b634e487b7160e01b88526011600452602488fd5b610d96858354613911565b11610da157386109fb565b60405162461bcd60e51b815260206004820152601560248201527f45786365656473206d61782070657220706861736500000000000000000000006044820152606490fd5b6001600160a01b038416885260018301602052610e078660408a2054613911565b11610e1257386109f4565b60405162461bcd60e51b815260206004820152601460248201527f45786365656473206d61782070657220757365720000000000000000000000006044820152606490fd5b10610e635785386109ec565b60405162461bcd60e51b815260206004820152601260248201527f45786365656473206d61782070657220747800000000000000000000000000006044820152606490fd5b60405162461bcd60e51b815260206004820152600b60248201526a109859081c185e5b595b9d60aa1b6044820152606490fd5b60405162461bcd60e51b81526020600482015260076024820152664261642073696760c81b6044820152606490fd5b60405162461bcd60e51b815260206004820152600a6024820152694d617820737570706c7960b01b6044820152606490fd5b60405162461bcd60e51b81526020600482015260086024820152670416d6f756e743d360c41b6044820152606490fd5b60405162461bcd60e51b815260206004820152600e60248201527f53656e646572213d77616c6c65740000000000000000000000000000000000006044820152606490fd5b60405162461bcd60e51b815260206004820152600a602482015269139bdb98d9481d5cd95960b21b6044820152606490fd5b60405162461bcd60e51b815260206004820152600c60248201526b105d5d1a08195e1c1a5c995960a21b6044820152606490fd5b8280fd5b503461056457602036600319011261056457600435600e5481101561067757600e5481101561108157600e9091527fbb7b4a454dc3493923482f07822329ed19e8244eff582cc204f8554c3620c3fd01546040516001600160a01b039091168152602090f35b634e487b7160e01b82526032600452602482fd5b50346105645760403660031901126105645760206110c26110b4612f33565b6110bc612f4e565b90613893565b6040519015158152f35b5034610564578060031936011261056457604051600e548082528160208101600e85526020852092855b81811061116657505061110b92500382613081565b6040519182600f548082526020820190600f845260208420935b81811061114d57505061113a92500383613081565b61114960405192839283613204565b0390f35b8454835260019485019487945060209093019201611125565b84546001600160a01b03168352600194850194869450602090930192016110f6565b5034610564576020366003190112610564576001600160a01b036111aa612f33565b6111b2613d31565b1680156111cd576001600160a01b0319601854161760185580f35b60405162461bcd60e51b81526020600482015260096024820152680666565526563763d360bc1b6044820152606490fd5b50346105645760403660031901126105645760043567ffffffffffffffff8111610677576112309036906004016130f6565b6024359067ffffffffffffffff8211611017576112546106b59236906004016130f6565b90613503565b5034610564576020366003190112610564576004356112976112928260005260026020526001600160a01b0360406000205416151590565b6133c0565b61129f61314e565b80519092901561148c57818282937a184f03e93ff9f4daa797ed6e38ed64bf6a1f010000000000000000811015611461575b50806d04ee2d6d415b85acef8100000000600a921015611446575b662386f26fc10000811015611432575b6305f5e100811015611421575b612710811015611412575b6064811015611404575b10156113f9575b600a6021600185019461135061133a876130a3565b966113486040519889613081565b8088526130a3565b602087019590601f1901368737508501015b60001901917f30313233343536373839616263646566000000000000000000000000000000008282061a83530490811561139e57600a90611362565b50506111499260206113e5926113d59460405195846113c6889651809287808a019101612f64565b85019151809385840190612f64565b010103601f198101835282613081565b604051918291602083526020830190612f87565b600190920191611325565b60646002910494019361131e565b61271060049104940193611314565b6305f5e10060089104940193611309565b662386f26fc10000601091049401936112fc565b6d04ee2d6d415b85acef8100000000602091049401936112ec565b604094507a184f03e93ff9f4daa797ed6e38ed64bf6a1f01000000000000000090049050600a6112d1565b604051611149935091506114a1602083613081565b81526113e5565b50346105645760203660031901126105645760406020916004358152600d83522054604051908152f35b5034610564576101403660031901126105645760043567ffffffffffffffff8111610677576115059036906004016130f6565b9060243567ffffffffffffffff8111610677576115269036906004016130f6565b60443567ffffffffffffffff8111611017576115469036906004016130f6565b926064359060a435906001600160a01b0382168092036119d15760c435936001600160a01b038516948581036119cd5760e435916bffffffffffffffffffffffff831683036119c95761010435916001600160a01b0383168084036119c55761012435986001600160a01b038a16809a036119c157601c5460ff811661197c5760ff1916600117601c55881561194c57871561191a57156118e9578a51156118ba57156118755787156118415761160c6116199261161e96611607336134aa565b613503565b611614613d31565b613d89565b61396a565b6001600160a01b0319601954161760195560145581601655825167ffffffffffffffff811161182d57611652601354613114565b601f81116117c2575b506020601f821160011461175357839482939492611748575b50508160011b916000199060031b1c1916176013555b6084356015556001600160a01b0319601854161760185560ff19601754166017556040600d602082516116bd8482613081565b828152016c4865647261584552433732314360981b8152206001602083516116e58582613081565b82815201603160f81b81522082519160208301937f8b73c3c69bb8fe3d512ecc4cf759cc79239f7b179b0ffacaa9a75d522b39400f855283015260608201524660808201523060a082015260a0815261173f60c082613081565b519020601b5580f35b015190503880611674565b6013845260008051602061435083398151915290601f198316855b8181106117aa57509583600195969710611791575b505050811b0160135561168a565b015160001960f88460031b161c19169055388080611783565b9192602060018192868b01518155019401920161176e565b60138452601f820160051c600080516020614350833981519152019060208310611817575b601f0160051c60008051602061435083398151915201905b81811061180c575061165b565b8481556001016117ff565b60008051602061435083398151915291506117e7565b634e487b7160e01b83526041600452602483fd5b60405162461bcd60e51b815260206004820152600c60248201526b2130b2103332b2903932b1bb60a11b6044820152606490fd5b60405162461bcd60e51b815260206004820152601060248201527f42616420726f79616c74792072656376000000000000000000000000000000006044820152606490fd5b60405162461bcd60e51b81526020600482015260076024820152664261642055524960c81b6044820152606490fd5b60405162461bcd60e51b81526020600482015260096024820152682130b21037bbb732b960b91b6044820152606490fd5b60405162461bcd60e51b815260206004820152600a6024820152692130b21039b4b3b732b960b11b6044820152606490fd5b60405162461bcd60e51b81526020600482015260086024820152670537570706c793d360c41b6044820152606490fd5b60405162461bcd60e51b815260206004820152601360248201527f416c726561647920696e697469616c697a6564000000000000000000000000006044820152606490fd5b8a80fd5b8980fd5b8780fd5b8680fd5b8480fd5b5034610564576080366003190112610564576119ef612f33565b6119f7612f4e565b906064359060443567ffffffffffffffff83116119d157366023840112156119d1576106b593611a34610cce9436906024816004013591016130bf565b92611a47611a428433613a3c565b61334b565b611a52838383613af8565b614029565b612fe6565b503461056457602036600319011261056457611a76612f33565b611a7e613d31565b6001600160a01b038116801515823b1581611b33575b50611b2457907fcc5dc080ff977b3c3a211fa63ab74f90f658f5ba9d3236e92c8f59570f442aac60406106b593611ac961330a565b906001600160a01b038351921682526020820152a161010060085475ffffffffffffffffffffffffffffffffffffffff00008360101b169075ffffffffffffffffffffffffffffffffffffffffff0019161717600855613dc9565b6332483afb60e01b8352600483fd5b905038611a94565b50346105645780600319360112610564576040516010548082528160208101601085526020852092855b818110611bc2575050611b7a92500382613081565b604051918260115480825260208201906011845260208420935b818110611ba957505061113a92500383613081565b8454835260019485019487945060209093019201611b94565b84546001600160a01b0316835260019485019486945060209093019201611b65565b503461056457604036600319011261056457611bfe612f33565b60243590811515809203611017576001600160a01b0390611c2360ff601254166132be565b1690813314611c7e573383526005602052604083208284526020526040832060ff1981541660ff83161790556040519081527f17307eab39ab6107e8899845ad3d59bd9653f200f220920489ca2b5937696c3160203392a380f35b60405162461bcd60e51b815260206004820152601960248201527f4552433732313a20617070726f766520746f2063616c6c6572000000000000006044820152606490fd5b5034610564576020366003190112610564577f6787c7f9a80aa0f5ceddab2c54f1f5169c0b88e75dd5e19d5e858a64144c7dbc6020611d006131f5565b611d08613d31565b151560085460ff60b01b8260b01b169060ff60b01b191617600855604051908152a180f35b5034610564578060031936011261056457604051908060075490611d5082613114565b8085529160018116908115611dd55750600114611d78575b611149846113e581860382613081565b600781527fa66cc928b5edb82af9bd49922954155ab7b0942694bea4ce44661d9a8736c688939250905b808210611dbb575090915081016020016113e582611d68565b919260018160209254838588010152019101909291611da2565b60ff191660208087019190915292151560051b850190920192506113e59150839050611d68565b503461056457806003193601126105645760206001600160a01b03600b5416604051908152f35b5034610564576020366003190112610564576106b5611e40612f33565b6134aa565b5034610564578060031936011261056457611e5e613d31565b60125460ff8116611e765760ff191660011760125580f35b60405162461bcd60e51b815260206004820152601760248201527f54726164696e6720616c726561647920656e61626c65640000000000000000006044820152606490fd5b5034610564578060031936011261056457611ed4613cdb565b611edc613d31565b6001600160a01b03601c5460081c168015611f3b57478015611f0b578280808093610608955af161060261342e565b60405162461bcd60e51b81526020600482015260086024820152674e6f2066756e647360c01b6044820152606490fd5b60405162461bcd60e51b815260206004820152601060248201527f7472656173757279206e6f7420736574000000000000000000000000000000006044820152606490fd5b503461056457602036600319011261056457611f9a6131f5565b611fa2613d31565b60ff801960175416911515161760175580f35b5034610564576040366003190112610564576040602091611fd4612f33565b6024358252600d84526001600160a01b036001848420019116825283522054604051908152f35b5034610564578060031936011261056457612014613d31565b806001600160a01b03600b5481198116600b55167f8be0079c531659141344cd1fd0a4f28419497f9722a3daafe3b4186f6b6457e08280a3600b805460ff60a01b1916600160a01b17905580f35b5034610564576020366003190112610564576001600160a01b03612084612f33565b1680156120a1578160409160209352600383522054604051908152f35b60405162461bcd60e51b815260206004820152602960248201527f4552433732313a2061646472657373207a65726f206973206e6f7420612076616044820152683634b21037bbb732b960b91b6064820152608490fd5b503461056457806003193601126105645760206001600160a01b0360175460081c16604051908152f35b5034610564576020366003190112610564576001600160a01b03612144612f33565b61214c613d31565b168015612167576001600160a01b0319601954161760195580f35b60405162461bcd60e51b815260206004820152600860248201526707369676e65723d360c41b6044820152606490fd5b50346105645780600319360112610564576111496113e561314e565b5034610564576020366003190112610564576001600160a01b036121d5612f33565b6121dd613cdb565b16801561229c578190825b601054811015612295576001600160a01b0361220382613003565b905460039190911b1c16331461221b576001016121e8565b612226919250613003565b6001600160a01b03829392549160031b92831b921b191617905560015b15612250576001600c5580f35b60405162461bcd60e51b815260206004820152601a60248201527f52656365697665722061646472657373206e6f7420666f756e640000000000006044820152606490fd5b5050612243565b60405162461bcd60e51b815260206004820152601660248201527f4e6577206164647265737320697320696e76616c6964000000000000000000006044820152606490fd5b503461056457602036600319011261056457602061230060043561340c565b6001600160a01b0360405191168152f35b5034610564578060031936011261056457602060ff60085460b01c166040519015158152f35b503461056457806003193601126105645760206001600160a01b03601c5460081c16604051908152f35b5034610564578060031936011261056457602060ff601754166040519015158152f35b5034610564576060366003190112610564576004356123a1612f4e565b90604435916bffffffffffffffffffffffff8316809303612499576001600160a01b03906123cd613d31565b6123db612710851115613e91565b169182156124545760207f7f5b076c952c0ec86e5425963c1326dd0f03a3595c19f81d765e8ff559a6e33c916040516124138161304f565b858152828101828152858852600a845260408089209251915160a01b6001600160a01b0319166001600160a01b03929092169190911790915551908152a380f35b60405162461bcd60e51b815260206004820152601b60248201527f455243323938313a20496e76616c696420706172616d657465727300000000006044820152606490fd5b8380fd5b50346105645760203660031901126105645760043567ffffffffffffffff8111610677576124cf9036906004016130f6565b906124d8613d31565b815167ffffffffffffffff8111612611576124f4601354613114565b601f81116125a6575b50602092601f821160011461253a5792829382939261252f575b50508160011b916000199060031b1c19161760135580f35b015190503880612517565b60138352601f1982169360008051602061435083398151915291845b86811061258e5750836001959610612575575b505050811b0160135580f35b015160001960f88460031b161c19169055388080612569565b91926020600181928685015181550194019201612556565b60138352601f820160051c6000805160206143508339815191520190602083106125fb575b601f0160051c60008051602061435083398151915201905b8181106125f057506124fd565b8381556001016125e3565b60008051602061435083398151915291506125cb565b634e487b7160e01b82526041600452602482fd5b50346105645760203660031901126105645760043590600f5482101561056457600f5482101561268157600f90527f8d1108e10bcb7c27dddfc02ed9d693a074039d026cf4ea4240b40f7d581ac8020154604051908152602090f35b634e487b7160e01b81526032600452602490fd5b50346105645780600319360112610564576020601654604051908152f35b5034610564578060031936011261056457602060ff601254166040519015158152f35b50346105645760203660031901126105645760043560ff601754161561284d576127008133613a3c565b156128195761270e8161340c565b6001600160a01b031615825b600181106127e35750506001600160a01b036127358261340c565b828452600460205260408420821981541690551680835260036020526040832060001981540190558183526002602052604083206001600160a01b031981541690558183827fddf252ad1be2c89b69c2b068fc378daa952ba7f163c4a11628f55a4df523b3ef8280a415825b600181106127ad578380f35b6127b78184613911565b5081806127db575b156127d357635cbd944160e01b8452600484fd5b6001016127a1565b5060016127bf565b6127ed8184613911565b508180612811575b1561280957635cbd944160e01b8452600484fd5b60010161271a565b5060016127f5565b60405162461bcd60e51b815260206004820152600c60248201526b139bdd08185c1c1c9bdd995960a21b6044820152606490fd5b60405162461bcd60e51b815260206004820152600d60248201526c109d5c9b88191a5cd8589b1959609a1b6044820152606490fd5b5034610564576106b5610cce61289736612fac565b90604051926128a7602085613081565b868452611a47611a428433613a3c565b50346105645780600319360112610564577f6bd5c950a8d8df17f772f5af37cb3655737899cbf903264b9795592da439661c604080518381526000196020820152a180f35b503461056457602036600319011261056457600435906010548210156105645760206001600160a01b0361292f84613003565b90549060031b1c16604051908152f35b50346105645760203660031901126105645760043561295c613d31565b601654811061296b5760145580f35b60405162461bcd60e51b81526020600482015260096024820152681b1d081b5a5b9d195960ba1b6044820152606490fd5b50346105645780600319360112610564576020601554604051908152f35b5034610564576040366003190112610564576004358152600a6020526040812090604051916129e88361304f565b546001600160a01b038116835260a01c60208301526001600160a01b0382511615612a63575b6127106001600160a01b0391612a386bffffffffffffffffffffffff6020860151166024356133ad565b90500491511661114960405192839283602090939291936001600160a01b0360408201951681520152565b809150506001600160a01b03612710604051612a7e8161304f565b600954838116825260a01c602082015292915050612a0e565b503461056457806003193601126105645760206001600160a01b0360185416604051908152f35b5034610564576106b5612ad036612fac565b91612ade611a428433613a3c565b613af8565b503461056457806003193601126105645760206001600160a01b0360195416604051908152f35b503461056457602036600319011261056457612b24612f33565b612b2c613d31565b610100600160a81b036017549160081b1690610100600160a81b0319161760175580f35b50346105645780600319360112610564576040805163657711f560e11b815260016020820152f35b5034610564578060031936011261056457602061230061330a565b503461056457604036600319011261056457612bad612f33565b60243590612bbf60ff601254166132be565b612bc88261340c565b6001600160a01b03808216921691808314612cbf573314908115612cad575b5015612c425781835260046020526040832080546001600160a01b031916821790556001600160a01b03612c1a8361340c565b167f8c5be1e5ebec7d5bd14f71427d1e84f3dd0314c0f7b2291e5b200ac8c7c3b9258480a480f35b60405162461bcd60e51b815260206004820152603d60248201527f4552433732313a20617070726f76652063616c6c6572206973206e6f7420746f60448201527f6b656e206f776e6572206f7220617070726f76656420666f7220616c6c0000006064820152608490fd5b612cb991503390613893565b38612be7565b60405162461bcd60e51b815260206004820152602160248201527f4552433732313a20617070726f76616c20746f2063757272656e74206f776e656044820152603960f91b6064820152608490fd5b5034610564576020366003190112610564576020612300600435613281565b5034610564578060031936011261056457604051908060065490612d5082613114565b8085529160018116908115611dd55750600114612d7757611149846113e581860382613081565b600681527ff652222313e28459528d920b65115c16c04f3efc82aaedc97be59f3f377c0d3f939250905b808210612dba575090915081016020016113e582611d68565b919260018160209254838588010152019101909291612da1565b50346105645780600319360112610564576020601454604051908152f35b503461056457604036600319011261056457612e0c612f33565b6024356bffffffffffffffffffffffff81168103611017576106b591611619613d31565b50346105645760203660031901126105645760043563ffffffff60e01b811680910361067757602090632483248360e11b8114908115612e76575b506040519015158152f35b63152a902d60e11b811491508115612e90575b5082612e6b565b632b435fdb60e21b811491508115612ef4575b8115612eb1575b5082612e89565b6380ac58cd60e01b811491508115612ee3575b8115612ed2575b5082612eaa565b6301ffc9a760e01b14905082612ecb565b635b5e139f60e01b81149150612ec4565b63503e914d60e11b81149150612ea3565b9050346106775781600319360112610677578073721c008fdff27bf06e7e123956e2fe03b63342e360209252f35b600435906001600160a01b0382168203612f4957565b600080fd5b602435906001600160a01b0382168203612f4957565b60005b838110612f775750506000910152565b8181015183820152602001612f67565b90602091612fa081518092818552858086019101612f64565b601f01601f1916010190565b6060906003190112612f49576004356001600160a01b0381168103612f4957906024356001600160a01b0381168103612f49579060443590565b34612f49576000366003190112612f495760206040516127108152f35b60105481101561301e57601060005260206000200190600090565b634e487b7160e01b600052603260045260246000fd5b60115481101561301e57601160005260206000200190600090565b6040810190811067ffffffffffffffff82111761306b57604052565b634e487b7160e01b600052604160045260246000fd5b90601f8019910116810190811067ffffffffffffffff82111761306b57604052565b67ffffffffffffffff811161306b57601f01601f191660200190565b9291926130cb826130a3565b916130d96040519384613081565b829481845281830111612f49578281602093846000960137010152565b9080601f83011215612f4957816020613111933591016130bf565b90565b90600182811c92168015613144575b602083101461312e57565b634e487b7160e01b600052602260045260246000fd5b91607f1691613123565b604051906000826013549161316283613114565b80835292600181169081156131d65750600114613188575b61318692500383613081565b565b506013600090815290916000805160206143508339815191525b8183106131ba5750509060206131869282010161317a565b60209193508060019154838589010152019101909184926131a2565b6020925061318694915060ff191682840152151560051b82010161317a565b600435908115158203612f4957565b6040810160408252825180915260206060830193019060005b8181106132625750505060208183039101526020808351928381520192019060005b81811061324c5750505090565b825184526020938401939092019160010161323f565b82516001600160a01b031685526020948501949092019160010161321d565b6132a46112928260005260026020526001600160a01b0360406000205416151590565b60005260046020526001600160a01b036040600020541690565b156132c557565b60405162461bcd60e51b815260206004820152601760248201527f54726164696e67206e6f7420656e61626c6564207965740000000000000000006044820152606490fd5b600854906001600160a01b038260101c169182156133255750565b60081c60ff161561333257565b73721c008fdff27bf06e7e123956e2fe03b63342e39150565b1561335257565b60405162461bcd60e51b815260206004820152602d60248201527f4552433732313a2063616c6c6572206973206e6f7420746f6b656e206f776e6560448201526c1c881bdc88185c1c1c9bdd9959609a1b6064820152608490fd5b8181029291811591840414171561013b57565b156133c757565b60405162461bcd60e51b815260206004820152601860248201527f4552433732313a20696e76616c696420746f6b656e20494400000000000000006044820152606490fd5b60005260026020526001600160a01b03604060002054166131118115156133c0565b3d15613459573d9061343f826130a3565b9161344d6040519384613081565b82523d6000602084013e565b606090565b1561346557565b60405162461bcd60e51b815260206004820152600f60248201527f7769746864726177206661696c656400000000000000000000000000000000006044820152606490fd5b600b546001600160a01b03811615908115916134f5575b506134e4576134cf90613d89565b600b805460ff60a01b1916600160a01b179055565b6369fe088760e01b60005260046000fd5b60ff915060a01c16386134c1565b9161350c613d31565b60085460ff81166138825760ff1916600117600855825167ffffffffffffffff811161306b5761353d600654613114565b601f81116137df575b506020601f821160011461375b5781929394600092613750575b50508160011b916000199060031b1c1916176006555b815167ffffffffffffffff811161306b57613592600754613114565b601f81116136ad575b50602092601f821160011461362b5792819293600092613620575b50508160011b916000199060031b1c1916176007555b7fcc5dc080ff977b3c3a211fa63ab74f90f658f5ba9d3236e92c8f59570f442aac604080516000815273721c008fdff27bf06e7e123956e2fe03b63342e36020820152a161318661361b61330a565b613dc9565b0151905038806135b6565b601f1982169360076000527fa66cc928b5edb82af9bd49922954155ab7b0942694bea4ce44661d9a8736c6889160005b868110613695575083600195961061367c575b505050811b016007556135cc565b015160001960f88460031b161c1916905538808061366e565b9192602060018192868501518155019401920161365b565b6007600052601f820160051c7fa66cc928b5edb82af9bd49922954155ab7b0942694bea4ce44661d9a8736c688019060208310613728575b601f0160051c7fa66cc928b5edb82af9bd49922954155ab7b0942694bea4ce44661d9a8736c68801905b81811061371c575061359b565b6000815560010161370f565b7fa66cc928b5edb82af9bd49922954155ab7b0942694bea4ce44661d9a8736c68891506136e5565b015190503880613560565b601f1982169060066000527ff652222313e28459528d920b65115c16c04f3efc82aaedc97be59f3f377c0d3f9160005b8181106137c7575095836001959697106137ae575b505050811b01600655613576565b015160001960f88460031b161c191690553880806137a0565b9192602060018192868b01518155019401920161378b565b6006600052601f820160051c7ff652222313e28459528d920b65115c16c04f3efc82aaedc97be59f3f377c0d3f01906020831061385a575b601f0160051c7ff652222313e28459528d920b65115c16c04f3efc82aaedc97be59f3f377c0d3f01905b81811061384e5750613546565b60008155600101613841565b7ff652222313e28459528d920b65115c16c04f3efc82aaedc97be59f3f377c0d3f9150613817565b63c7a92d9960e01b60005260046000fd5b6001600160a01b039092919216600052600560205260406000206001600160a01b03831660005260205260ff604060002054169182156138d05750565b60ff60085460b01c166138e05750565b9091506001600160a01b03806138f461330a565b1691161490565b6004356001600160a01b0381168103612f495790565b9190820180921161013b57565b1561392557565b60405162461bcd60e51b815260206004820152600f60248201527f5472616e73666572206661696c656400000000000000000000000000000000006044820152606490fd5b6001600160a01b036bffffffffffffffffffffffff831691613990612710841115613e91565b169182156139f757816020917f8a8bae378cb731c5c40b632330c6836c2f916f48edb967699c86736f9a6a76ef93836040516139cb8161304f565b87815201526001600160a01b03851660a09190911b6001600160a01b03191617600955604051908152a2565b60405162461bcd60e51b815260206004820152601960248201527f455243323938313a20696e76616c6964207265636569766572000000000000006044820152606490fd5b613a458261340c565b916001600160a01b038216916001600160a01b0384168314938415613a8b575b50508215613a7257505090565b6001600160a01b03919250613a8690613281565b161490565b613a96929450613893565b913880613a65565b15613aa557565b60405162461bcd60e51b815260206004820152602560248201527f4552433732313a207472616e736665722066726f6d20696e636f72726563742060448201526437bbb732b960d91b6064820152608490fd5b6001600160a01b03613b18613b0c8561340c565b83831692168214613a9e565b6001600160a01b038316918215613c8a578115938593929160005b60018110613c2c57505050613b5a816001600160a01b03613b538661340c565b1614613a9e565b82600052600460205260406000206001600160a01b03198154169055806000526003602052604060002060001981540190558160005260036020526040600020600181540190558260005260026020526040600020826001600160a01b03198254161790557fddf252ad1be2c89b69c2b068fc378daa952ba7f163c4a11628f55a4df523b3ef600080a460005b60018110613bf457505050565b613bfe8184613911565b508180613c24575b15613c1c57635cbd944160e01b60005260046000fd5b600101613be7565b506000613c06565b909192939481613c3b91613911565b908680613c82575b15613c5957635cbd944160e01b60005260046000fd5b6001918715613c70575b5001919086949392613b33565b613c7c908585336142ac565b38613c63565b506000613c43565b60405162461bcd60e51b8152602060048201526024808201527f4552433732313a207472616e7366657220746f20746865207a65726f206164646044820152637265737360e01b6064820152608490fd5b6002600c5414613cec576002600c55565b60405162461bcd60e51b815260206004820152601f60248201527f5265656e7472616e637947756172643a207265656e7472616e742063616c6c006044820152606490fd5b6001600160a01b03600b54163303613d4557565b606460405162461bcd60e51b815260206004820152602060248201527f4f776e61626c653a2063616c6c6572206973206e6f7420746865206f776e65726044820152fd5b6001600160a01b0380600b54921691828219821617600b55167f8be0079c531659141344cd1fd0a4f28419497f9722a3daafe3b4186f6b6457e0600080a3565b6000906001600160a01b0381169081613de157505050565b3b613deb575b5050565b803b156106775781809160446040518094819363fb2de5d760e01b83523060048401526102d160248401525af115613de75781613e2791613081565b50565b15613e3157565b60405162461bcd60e51b815260206004820152603260248201527f4552433732313a207472616e7366657220746f206e6f6e20455243373231526560448201527131b2b4bb32b91034b6b83632b6b2b73a32b960711b6064820152608490fd5b15613e9857565b60405162461bcd60e51b815260206004820152602a60248201527f455243323938313a20726f79616c7479206665652077696c6c206578636565646044820152692073616c65507269636560b01b6064820152608490fd5b91823b1561402157613f3e9260209260006001600160a01b03604051809781968295630a85bd0160e11b84523360048501528560248501526044840152608060648401526084830190612f87565b0393165af18091600091613fde575b5090613fc857613f5b61342e565b80519081613fc35760405162461bcd60e51b815260206004820152603260248201527f4552433732313a207472616e7366657220746f206e6f6e20455243373231526560448201527131b2b4bb32b91034b6b83632b6b2b73a32b960711b6064820152608490fd5b602001fd5b6001600160e01b031916630a85bd0160e11b1490565b6020813d602011614019575b81613ff760209383613081565b810103126106775751906001600160e01b031982168203610564575038613f4d565b3d9150613fea565b505050600190565b9190803b15614079576001600160a01b03600081602095613f3e60405198899788968794630a85bd0160e11b86523360048701521660248501526044840152608060648401526084830190612f87565b50505050600190565b9060418151146000146140b0576140ac916020820151906060604084015193015160001a906141d4565b9091565b5050600090600290565b60058110156141be57806140cb5750565b600181036141185760405162461bcd60e51b815260206004820152601860248201527f45434453413a20696e76616c6964207369676e617475726500000000000000006044820152606490fd5b600281036141655760405162461bcd60e51b815260206004820152601f60248201527f45434453413a20696e76616c6964207369676e6174757265206c656e677468006044820152606490fd5b60031461416e57565b60405162461bcd60e51b815260206004820152602260248201527f45434453413a20696e76616c6964207369676e6174757265202773272076616c604482015261756560f01b6064820152608490fd5b634e487b7160e01b600052602160045260246000fd5b7f7fffffffffffffffffffffffffffffff5d576e7357a4501ddfe92f46681b20a084116142545760209360009360ff60809460405194855216868401526040830152606082015282805260015afa15614248576000516001600160a01b0381161561423f5790600090565b50600090600190565b6040513d6000823e3d90fd5b50505050600090600390565b1561426757565b60405162461bcd60e51b815260206004820152601c60248201527f4552433732313a20746f6b656e20616c7265616479206d696e746564000000006044820152606490fd5b90916142b661330a565b936001600160a01b036000951691826142d2575b505050505050565b8233146142ca57823b1561434b57926001600160a01b039260849284889681604051998a98899763657711f560e11b895216600488015216602486015216604484015260648301525afa801561434057614330575b808080806142ca565b8161433a91613081565b38614327565b6040513d84823e3d90fd5b8580fdfe66de8ffda797e3de9c05e8fc57b3bf0ec28a930d40b0d285d93c06501cf6a090a264697066735822122044b0cd343b6d071d7347e2e09c1a7c25f33dbbd18dcb23e89fb937b2c8627ee764736f6c634300081c0033",
  "linkReferences": {},
  "deployedLinkReferences": {}
}